:1000000010C028C027C026C025C024C023C022C0DD
:1000100021C020C01FC01EC01DC01CC01BC01AC0F4
:1000200019C011241FBECFEDCDBF10E0A0E6B0E097
:10003000ECE2F3E002C005900D92A03AB107D9F7C7
:1000400010E0A0EAB0E001C01D92A13AB107E1F7CB
:10005000EAD06AC1D5CFC29880E5982F9A95F1F77A
:10006000C09A982F9A95F1F7C29A982F9A95F1F71E
:10007000C2988A95F1F70895C29880E5982F9A95CD
:10008000F1F7C098982F9A95F1F7C29A982F9A9500
:10009000F1F7C2988A95F1F708958AE1982F9A9519
:1000A000F1F7C1988A95F1F708958AE1982F9A950A
:1000B000F1F7C19A8A95F1F708951F93CF93DF93D3
:1000C000E82FF0E0EE0FFF1FE05AFF4FC081D18113
:1000D0008AE1982F9A95F1F7C19A982F9A95F1F79E
:1000E000E0E9F1E03197F1F7982F9A95F1F7C1988F
:1000F0008A95F1F7C1DFC0DFBFDFADDFBDDF14E1FF
:10010000BBDF1150E9F78AE1982F9A95F1F7C19A70
:10011000982F9A95F1F7E0E9F1E03197F1F7982FF0
:100120009A95F1F7C198982F9A95F1F7982F9A958B
:10013000F1F7C19A982F9A95F1F7982F9A95F1F7C0
:10014000C1988A95F1F787DF97DF96DF95DF83DF28
:1001500010E1C0FF02C07FDF01C08EDF115019F037
:10016000D695C795F6CF88DF87DF86DF85DF8AE102
:10017000982F9A95F1F7C19A8A95F1F780E991E065
:100180000197F1F7C19AC298C098DF91CF911F9162
:10019000089589B3877008958091A000882389F419
:1001A000CF9915C088E99AE324E130E0F90131974D
:1001B000F1F70197D9F7B5990AC081E08093A000C3
:1001C00006C0813021F4CF9B02C01092A000809124
:1001D000A0000895DB9ADD9ADE989FEF30E628E2D2
:1001E0008BB383278BBB822F8A95F1F79150C1F790
:1001F000DB988BB38F798BBB0895ECDF0895EADF32
:10020000E9DFE8DFE7DF08958CE49DE124E130E0F9
:10021000F9013197F1F70197D9F7089580E593EC4B
:100220000197F1F70895CF92DF92EF92FF920F932B
:100230001F93CF93DF9388E68ABB87E98BBB87E068
:1002400087BB18BA80E090E059D0082F843008F0BE
:1002500000E010E0C4E1D0E0D2DF8CE49DE1FE01DB
:100260003197F1F70197D9F71F5F0117A8F7FF241E
:10027000FA94EE2424E1C22ED12CC0E5D3EC8CDF1D
:10028000882311F4EE241EC0EE20E1F40F5F043049
:1002900008F000E080E090E0602F38D0802F880FD9
:1002A000880F880F8F0D09DF10E0A9DF8CE49DE136
:1002B000F6013197F1F70197D9F71F5F0117A8F7FA
:1002C000EE24E39489B38770992787FD90952F2DAD
:1002D00030E08217930799F2F9B287E0F822802F75
:1002E000880F880F880F8F0DE8DE10E073DFCE01D6
:1002F0000197F1F71F5FF116C8F7C1CFE199FECF63
:100300001FBA8EBBE09A99278DB30895262FE199E5
:10031000FECF1CBA1FBA8EBB2DBB0FB6F894E29A63
:0C032000E19A0FBE01960895F894FFCFFB
:10032C00052A9B29912987291D29132909299F28E9
:10033C0003290C2916291F29892992299C29052A68
:10034C0095288B28812817280F2A192A832A8D2A69
:10035C00062910291A2984298E299829022A0C2A5F
:00000001FF
